{
  "contractName": "Tweet",
  "abi": [
    {
      "anonymous": false,
      "inputs": [
        {
          "indexed": false,
          "internalType": "uint256",
          "name": "id",
          "type": "uint256"
        },
        {
          "indexed": false,
          "internalType": "string",
          "name": "content",
          "type": "string"
        }
      ],
      "name": "NewTweet",
      "type": "event"
    },
    {
      "inputs": [
        {
          "internalType": "uint256",
          "name": "",
          "type": "uint256"
        }
      ],
      "name": "listtweet",
      "outputs": [
        {
          "internalType": "uint256",
          "name": "id",
          "type": "uint256"
        },
        {
          "internalType": "string",
          "name": "content",
          "type": "string"
        },
        {
          "internalType": "bool",
          "name": "modified",
          "type": "bool"
        },
        {
          "internalType": "bool",
          "name": "deleted",
          "type": "bool"
        },
        {
          "internalType": "uint256",
          "name": "date",
          "type": "uint256"
        }
      ],
      "stateMutability": "view",
      "type": "function",
      "constant": true
    },
    {
      "inputs": [],
      "name": "tweetCount",
      "outputs": [
        {
          "internalType": "uint256",
          "name": "",
          "type": "uint256"
        }
      ],
      "stateMutability": "view",
      "type": "function",
      "constant": true
    },
    {
      "inputs": [
        {
          "internalType": "string",
          "name": "_content",
          "type": "string"
        }
      ],
      "name": "createSportTweet",
      "outputs": [],
      "stateMutability": "nonpayable",
      "type": "function"
    },
    {
      "inputs": [
        {
          "internalType": "uint256",
          "name": "a",
          "type": "uint256"
        },
        {
          "internalType": "string",
          "name": "_content",
          "type": "string"
        }
      ],
      "name": "modifyTweet",
      "outputs": [],
      "stateMutability": "nonpayable",
      "type": "function"
    },
    {
      "inputs": [
        {
          "internalType": "uint256",
          "name": "a",
          "type": "uint256"
        }
      ],
      "name": "deleteTweet",
      "outputs": [],
      "stateMutability": "nonpayable",
      "type": "function"
    },
    {
      "inputs": [],
      "name": "getListTweet",
      "outputs": [
        {
          "components": [
            {
              "internalType": "uint256",
              "name": "id",
              "type": "uint256"
            },
            {
              "internalType": "string",
              "name": "content",
              "type": "string"
            },
            {
              "internalType": "bool",
              "name": "modified",
              "type": "bool"
            },
            {
              "internalType": "bool",
              "name": "deleted",
              "type": "bool"
            },
            {
              "internalType": "uint256",
              "name": "date",
              "type": "uint256"
            }
          ],
          "internalType": "struct Tweet.TweetStructure[]",
          "name": "",
          "type": "tuple[]"
        }
      ],
      "stateMutability": "view",
      "type": "function",
      "constant": true
    }
  ],
  "bytecode": "0x60806040526000805534801561001457600080fd5b50610898806100246000396000f3fe608060405234801561001057600080fd5b50600436106100625760003560e01c80633afde6f3146100675780633ba41eb51461007c5780634a7782b31461009a5780635775912a146100af5780637d3f9777146100c2578063f4d46c41146100e6575b600080fd5b61007a6100753660046105fb565b6100f9565b005b610084610223565b60405161009191906106de565b60405180910390f35b6100a261034d565b6040516100919190610774565b61007a6100bd366004610636565b610353565b6100d56100d0366004610636565b6103a3565b604051610091959493929190610796565b61007a6100f436600461064e565b610474565b6001805460009161010a91906107cc565b6040805160a08101825282815260208082018681526000938301849052606083018490524260808401526001805480820182559452825160049094027fb10e2d527612073b26eecdfd717e6a320cf44b4afac2b0732d9fcbe2b7fa0cf681019485559051805195965092946101a8937fb10e2d527612073b26eecdfd717e6a320cf44b4afac2b0732d9fcbe2b7fa0cf79092019291909101906104db565b50604082810151600283018054606086015115156101000261ff001993151560ff199092169190911792909216919091179055608090920151600390910155517fedecc4f6066262b45e883a320492540cef377d7c3af8e018558a37a9000299d990610217908390859061077d565b60405180910390a15050565b60606001805480602002602001604051908101604052809291908181526020016000905b8282101561034457838290600052602060002090600402016040518060a001604052908160008201548152602001600182018054610284906107fb565b80601f01602080910402602001604051908101604052809291908181526020018280546102b0906107fb565b80156102fd5780601f106102d2576101008083540402835291602001916102fd565b820191906000526020600020905b8154815290600101906020018083116102e057829003601f168201915b5050509183525050600282015460ff808216151560208085019190915261010090920416151560408301526003909201546060909101529082526001929092019101610247565b50505050905090565b60005481565b6000600161036181846107e4565b8154811061037f57634e487b7160e01b600052603260045260246000fd5b60009182526020909120600260049092020101805461ff0019166101001790555050565b600181815481106103b357600080fd5b600091825260209091206004909102018054600182018054919350906103d8906107fb565b80601f0160208091040260200160405190810160405280929190818152602001828054610404906107fb565b80156104515780601f1061042657610100808354040283529160200191610451565b820191906000526020600020905b81548152906001019060200180831161043457829003601f168201915b505050506002830154600390930154919260ff8082169361010090920416915085565b6000600161048281856107e4565b815481106104a057634e487b7160e01b600052603260045260246000fd5b90600052602060002090600402019050818160010190805190602001906104c89291906104db565b50600201805460ff191660011790555050565b8280546104e7906107fb565b90600052602060002090601f016020900481019282610509576000855561054f565b82601f1061052257805160ff191683800117855561054f565b8280016001018555821561054f579182015b8281111561054f578251825591602001919060010190610534565b5061055b92915061055f565b5090565b5b8082111561055b5760008155600101610560565b600082601f830112610584578081fd5b813567ffffffffffffffff8082111561059f5761059f61084c565b604051601f8301601f19908116603f011681019082821181831017156105c7576105c761084c565b816040528381528660208588010111156105df578485fd5b8360208701602083013792830160200193909352509392505050565b60006020828403121561060c578081fd5b813567ffffffffffffffff811115610622578182fd5b61062e84828501610574565b949350505050565b600060208284031215610647578081fd5b5035919050565b60008060408385031215610660578081fd5b82359150602083013567ffffffffffffffff81111561067d578182fd5b61068985828601610574565b9150509250929050565b60008151808452815b818110156106b85760208185018101518683018201520161069c565b818111156106c95782602083870101525b50601f01601f19169290920160200192915050565b60208082528251828201819052600091906040908185019080840286018301878501865b8381101561076657603f19898403018552815160a08151855288820151818a87015261073082870182610693565b838a01511515878b0152606080850151151590880152608093840151939096019290925250509386019390860190600101610702565b509098975050505050505050565b90815260200190565b60008382526040602083015261062e6040830184610693565b600086825260a060208301526107af60a0830187610693565b941515604083015250911515606083015260809091015292915050565b600082198211156107df576107df610836565b500190565b6000828210156107f6576107f6610836565b500390565b60028104600182168061080f57607f821691505b6020821081141561083057634e487b7160e01b600052602260045260246000fd5b50919050565b634e487b7160e01b600052601160045260246000fd5b634e487b7160e01b600052604160045260246000fdfea2646970667358221220e8c515a49d2def6b4c5e97165e93e7efe2763f07806b0ff3ef21649f1df897bb64736f6c63430008010033",
  "immutableReferences": {},
  "source": "//SPDX-License-Identifier: MIT\r\n\r\npragma solidity ^0.8.1;\r\n\r\ncontract Tweet {\r\n    event NewTweet(uint256 id, string content);\r\n\r\n    uint256 public tweetCount = 0;\r\n\r\n    struct TweetStructure {\r\n        uint256 id;\r\n        string content;\r\n        bool modified;\r\n        bool deleted;\r\n        uint256 date;\r\n    }\r\n\r\n    //mapping(uint => TweetStructure) public key;\r\n    TweetStructure[] public listtweet;\r\n\r\n    function createSportTweet(string memory _content) public {\r\n        uint256 id = listtweet.length + 1;\r\n        listtweet.push(\r\n            TweetStructure(id, _content, false, false, block.timestamp)\r\n        );\r\n\r\n        emit NewTweet(id, _content);\r\n    }\r\n\r\n    function modifyTweet(uint256 a, string memory _content) public {\r\n        TweetStructure storage tweet_ = listtweet[a - 1];\r\n        tweet_.content = _content;\r\n        tweet_.modified = true;\r\n    }\r\n\r\n    function deleteTweet(uint256 a) public {\r\n        TweetStructure storage tweet_ = listtweet[a - 1];\r\n        tweet_.deleted = true;\r\n    }\r\n\r\n    function getListTweet() public view returns (TweetStructure[] memory) {\r\n        return listtweet;\r\n    }\r\n}\r\n",
  "sourcePath": "C:/Users/ISANFOWEB/Desktop/new/newfoder/smcontract/contracts/Tweet.sol",
  "compiler": {
    "name": "solc",
    "version": "0.8.1+commit.df193b15.Emscripten.clang"
  },
  "schemaVersion": "3.3.4",
  "updatedAt": "2021-05-31T10:54:12.338Z",
  "networkType": "ethereum",
  "devdoc": {
    "kind": "dev",
    "methods": {},
    "version": 1
  },
  "userdoc": {
    "kind": "user",
    "methods": {},
    "version": 1
  }
}